{
  "contractName": "LabResource",
  "abi": [
    {
      "inputs": [],
      "stateMutability": "nonpayable",
      "type": "constructor"
    },
    {
      "anonymous": false,
      "inputs": [
        {
          "indexed": false,
          "internalType": "address",
          "name": "caller",
          "type": "address"
        }
      ],
      "name": "AuthorizedCaller",
      "type": "event"
    },
    {
      "anonymous": false,
      "inputs": [
        {
          "indexed": false,
          "internalType": "address",
          "name": "caller",
          "type": "address"
        }
      ],
      "name": "DeAuthorizedCaller",
      "type": "event"
    },
    {
      "anonymous": false,
      "inputs": [
        {
          "indexed": true,
          "internalType": "address",
          "name": "previousOwner",
          "type": "address"
        }
      ],
      "name": "OwnershipRenounced",
      "type": "event"
    },
    {
      "anonymous": false,
      "inputs": [
        {
          "indexed": true,
          "internalType": "address",
          "name": "previousOwner",
          "type": "address"
        },
        {
          "indexed": true,
          "internalType": "address",
          "name": "newOwner",
          "type": "address"
        }
      ],
      "name": "OwnershipTransferred",
      "type": "event"
    },
    {
      "inputs": [],
      "name": "lastAccess",
      "outputs": [
        {
          "internalType": "address",
          "name": "",
          "type": "address"
        }
      ],
      "stateMutability": "view",
      "type": "function",
      "constant": true
    },
    {
      "inputs": [],
      "name": "owner",
      "outputs": [
        {
          "internalType": "address",
          "name": "",
          "type": "address"
        }
      ],
      "stateMutability": "view",
      "type": "function",
      "constant": true
    },
    {
      "inputs": [],
      "name": "renounceOwnership",
      "outputs": [],
      "stateMutability": "nonpayable",
      "type": "function"
    },
    {
      "inputs": [
        {
          "internalType": "address",
          "name": "newOwner",
          "type": "address"
        }
      ],
      "name": "transferOwnership",
      "outputs": [],
      "stateMutability": "nonpayable",
      "type": "function"
    },
    {
      "inputs": [
        {
          "internalType": "address",
          "name": "_caller",
          "type": "address"
        }
      ],
      "name": "authorizeCaller",
      "outputs": [
        {
          "internalType": "bool",
          "name": "",
          "type": "bool"
        }
      ],
      "stateMutability": "nonpayable",
      "type": "function"
    },
    {
      "inputs": [
        {
          "internalType": "address",
          "name": "_caller",
          "type": "address"
        }
      ],
      "name": "deAuthorizeCaller",
      "outputs": [
        {
          "internalType": "bool",
          "name": "",
          "type": "bool"
        }
      ],
      "stateMutability": "nonpayable",
      "type": "function"
    },
    {
      "inputs": [],
      "name": "getUserRole",
      "outputs": [
        {
          "internalType": "bool",
          "name": "",
          "type": "bool"
        }
      ],
      "stateMutability": "view",
      "type": "function",
      "constant": true
    },
    {
      "inputs": [
        {
          "internalType": "string",
          "name": "_deviceid",
          "type": "string"
        }
      ],
      "name": "getNextAction",
      "outputs": [
        {
          "internalType": "string",
          "name": "",
          "type": "string"
        }
      ],
      "stateMutability": "nonpayable",
      "type": "function"
    },
    {
      "inputs": [
        {
          "internalType": "string",
          "name": "_facultyid",
          "type": "string"
        },
        {
          "internalType": "string",
          "name": "_name",
          "type": "string"
        },
        {
          "internalType": "uint256",
          "name": "_contactNo",
          "type": "uint256"
        },
        {
          "internalType": "string",
          "name": "_role",
          "type": "string"
        },
        {
          "internalType": "string",
          "name": "_designation",
          "type": "string"
        },
        {
          "internalType": "string",
          "name": "_department",
          "type": "string"
        }
      ],
      "name": "setUser",
      "outputs": [
        {
          "internalType": "bool",
          "name": "",
          "type": "bool"
        }
      ],
      "stateMutability": "nonpayable",
      "type": "function"
    },
    {
      "inputs": [
        {
          "internalType": "string",
          "name": "id",
          "type": "string"
        }
      ],
      "name": "getUser",
      "outputs": [
        {
          "internalType": "string",
          "name": "userid",
          "type": "string"
        },
        {
          "internalType": "string",
          "name": "name",
          "type": "string"
        },
        {
          "internalType": "uint256",
          "name": "contactNo",
          "type": "uint256"
        },
        {
          "internalType": "string",
          "name": "role",
          "type": "string"
        },
        {
          "internalType": "string",
          "name": "designation",
          "type": "string"
        },
        {
          "internalType": "string",
          "name": "department",
          "type": "string"
        }
      ],
      "stateMutability": "nonpayable",
      "type": "function"
    },
    {
      "inputs": [
        {
          "internalType": "string",
          "name": "_deviceid",
          "type": "string"
        },
        {
          "internalType": "string",
          "name": "_name",
          "type": "string"
        },
        {
          "internalType": "string",
          "name": "_brand",
          "type": "string"
        },
        {
          "internalType": "uint256",
          "name": "_purchasedate",
          "type": "uint256"
        },
        {
          "internalType": "uint256",
          "name": "_price",
          "type": "uint256"
        },
        {
          "internalType": "uint256",
          "name": "_purchasereceiptno",
          "type": "uint256"
        },
        {
          "internalType": "string",
          "name": "_description",
          "type": "string"
        }
      ],
      "name": "addDevice",
      "outputs": [
        {
          "internalType": "bool",
          "name": "",
          "type": "bool"
        }
      ],
      "stateMutability": "nonpayable",
      "type": "function"
    },
    {
      "inputs": [
        {
          "internalType": "string",
          "name": "deviceid",
          "type": "string"
        }
      ],
      "name": "getDeviceDetails",
      "outputs": [
        {
          "internalType": "string",
          "name": "_deviceid",
          "type": "string"
        },
        {
          "internalType": "string",
          "name": "_name",
          "type": "string"
        },
        {
          "internalType": "string",
          "name": "_brand",
          "type": "string"
        },
        {
          "internalType": "uint256",
          "name": "_purchasedate",
          "type": "uint256"
        },
        {
          "internalType": "uint256",
          "name": "_price",
          "type": "uint256"
        },
        {
          "internalType": "uint256",
          "name": "_purchasereceiptno",
          "type": "uint256"
        },
        {
          "internalType": "string",
          "name": "_description",
          "type": "string"
        }
      ],
      "stateMutability": "nonpayable",
      "type": "function"
    }
  ],
  "bytecode": "0x60806040523480156200001157600080fd5b50336000806101000a81548173ffffffffffffffffffffffffffffffffffffffff021916908373ffffffffffffffffffffffffffffffffffffffff1602179055506001600460003373ffffffffffffffffffffffffffffffffffffffff1673ffffffffffffffffffffffffffffffffffffffff16815260200190815260200160002060006101000a81548160ff021916908360ff1602179055507f8afeca650897be3183b7c0d24eba96a1b990f75c4bd74a0cfb2c0a71aec48e6133604051620000dc9190620000fb565b60405180910390a16200014c565b620000f58162000118565b82525050565b6000602082019050620001126000830184620000ea565b92915050565b600062000125826200012c565b9050919050565b600073ffffffffffffffffffffffffffffffffffffffff82169050919050565b611c98806200015c6000396000f3fe608060405234801561001057600080fd5b50600436106100b45760003560e01c8063715018a611610071578063715018a6146101cc5780638da5cb5b146101d6578063b858d3a5146101f4578063bf04a10d1461022a578063e49455fb14610248578063f2fde38b14610278576100b4565b8063049121b5146100b95780631bcd250a146100e95780632c388d5d1461011957806331feb671146101495780633480898b1461017e57806361976d2c1461019c575b600080fd5b6100d360048036038101906100ce9190611607565b610294565b6040516100e091906118fb565b60405180910390f35b61010360048036038101906100fe9190611591565b61042e565b60405161011091906118fb565b60405180910390f35b610133600480360381019061012e9190611591565b610522565b60405161014091906118fb565b60405180910390f35b610163600480360381019061015e91906115be565b610616565b604051610175969594939291906119c3565b60405180910390f35b610186610a02565b60405161019391906118e0565b60405180910390f35b6101b660048036038101906101b191906115be565b610a28565b6040516101c39190611916565b60405180910390f35b6101d4610b75565b005b6101de610c73565b6040516101eb91906118e0565b60405180910390f35b61020e600480360381019061020991906115be565b610c97565b6040516102219796959493929190611938565b60405180910390f35b610232611010565b60405161023f91906118fb565b60405180910390f35b610262600480360381019061025d9190611719565b611072565b60405161026f91906118fb565b60405180910390f35b610292600480360381019061028d9190611591565b611278565b005b600033600160006101000a81548173ffffffffffffffffffffffffffffffffffffffff021916908373ffffffffffffffffffffffffffffffffffffffff1602179055506001600460003373ffffffffffffffffffffffffffffffffffffffff1673ffffffffffffffffffffffffffffffffffffffff16815260200190815260200160002060009054906101000a900460ff1660ff161461033357600080fd5b60006040518060e001604052808a81526020018981526020018881526020018781526020018681526020018581526020018481525090508060038a60405161037b91906118c9565b908152602001604051809103902060008201518160000190805190602001906103a59291906113c7565b5060208201518160010190805190602001906103c29291906113c7565b5060408201518160020190805190602001906103df9291906113c7565b50606082015181600301556080820151816004015560a0820151816005015560c082015181600601908051906020019061041a9291906113c7565b509050506001915050979650505050505050565b60008060009054906101000a900473ffffffffffffffffffffffffffffffffffffffff1673ffffffffffffffffffffffffffffffffffffffff163373ffffffffffffffffffffffffffffffffffffffff161461048957600080fd5b6000600460008473ffffffffffffffffffffffffffffffffffffffff1673ffffffffffffffffffffffffffffffffffffffff16815260200190815260200160002060006101000a81548160ff021916908360ff1602179055507f9e8ca6ff03906e81e8a6a03d4f96b7edb0b97f0ed9d07ef1b699fff6343854968260405161051191906118e0565b60405180910390a160019050919050565b60008060009054906101000a900473ffffffffffffffffffffffffffffffffffffffff1673ffffffffffffffffffffffffffffffffffffffff163373ffffffffffffffffffffffffffffffffffffffff161461057d57600080fd5b6001600460008473ffffffffffffffffffffffffffffffffffffffff1673ffffffffffffffffffffffffffffffffffffffff16815260200190815260200160002060006101000a81548160ff021916908360ff1602179055507f8afeca650897be3183b7c0d24eba96a1b990f75c4bd74a0cfb2c0a71aec48e618260405161060591906118e0565b60405180910390a160019050919050565b6060806000606080606033600160006101000a81548173ffffffffffffffffffffffffffffffffffffffff021916908373ffffffffffffffffffffffffffffffffffffffff1602179055506001600460003373ffffffffffffffffffffffffffffffffffffffff1673ffffffffffffffffffffffffffffffffffffffff16815260200190815260200160002060009054906101000a900460ff1660ff16146106bd57600080fd5b60006002886040516106cf91906118c9565b90815260200160405180910390206040518060c00160405290816000820180546106f890611b4e565b80601f016020809104026020016040519081016040528092919081815260200182805461072490611b4e565b80156107715780601f1061074657610100808354040283529160200191610771565b820191906000526020600020905b81548152906001019060200180831161075457829003601f168201915b5050505050815260200160018201805461078a90611b4e565b80601f01602080910402602001604051908101604052809291908181526020018280546107b690611b4e565b80156108035780601f106107d857610100808354040283529160200191610803565b820191906000526020600020905b8154815290600101906020018083116107e657829003601f168201915b505050505081526020016002820154815260200160038201805461082690611b4e565b80601f016020809104026020016040519081016040528092919081815260200182805461085290611b4e565b801561089f5780601f106108745761010080835404028352916020019161089f565b820191906000526020600020905b81548152906001019060200180831161088257829003601f168201915b505050505081526020016004820180546108b890611b4e565b80601f01602080910402602001604051908101604052809291908181526020018280546108e490611b4e565b80156109315780601f1061090657610100808354040283529160200191610931565b820191906000526020600020905b81548152906001019060200180831161091457829003601f168201915b5050505050815260200160058201805461094a90611b4e565b80601f016020809104026020016040519081016040528092919081815260200182805461097690611b4e565b80156109c35780601f10610998576101008083540402835291602001916109c3565b820191906000526020600020905b8154815290600101906020018083116109a657829003601f168201915b5050505050815250509050806000015181602001518260400151836080015184606001518560a001519650965096509650965096505091939550919395565b600160009054906101000a900473ffffffffffffffffffffffffffffffffffffffff1681565b606033600160006101000a81548173ffffffffffffffffffffffffffffffffffffffff021916908373ffffffffffffffffffffffffffffffffffffffff1602179055506001600460003373ffffffffffffffffffffffffffffffffffffffff1673ffffffffffffffffffffffffffffffffffffffff16815260200190815260200160002060009054906101000a900460ff1660ff1614610ac757600080fd5b600582604051610ad791906118c9565b90815260200160405180910390208054610af090611b4e565b80601f0160208091040260200160405190810160405280929190818152602001828054610b1c90611b4e565b8015610b695780601f10610b3e57610100808354040283529160200191610b69565b820191906000526020600020905b815481529060010190602001808311610b4c57829003601f168201915b50505050509050919050565b60008054906101000a900473ffffffffffffffffffffffffffffffffffffffff1673ffffffffffffffffffffffffffffffffffffffff163373ffffffffffffffffffffffffffffffffffffffff1614610bcd57600080fd5b60008054906101000a900473ffffffffffffffffffffffffffffffffffffffff1673ffffffffffffffffffffffffffffffffffffffff167ff8df31144d9c2f0f6b59d69b8b98abd5459d07f2742c4df920b25aae33c6482060405160405180910390a260008060006101000a81548173ffffffffffffffffffffffffffffffffffffffff021916908373ffffffffffffffffffffffffffffffffffffffff160217905550565b60008054906101000a900473ffffffffffffffffffffffffffffffffffffffff1681565b60608060606000806000606033600160006101000a81548173ffffffffffffffffffffffffffffffffffffffff021916908373ffffffffffffffffffffffffffffffffffffffff1602179055506001600460003373ffffffffffffffffffffffffffffffffffffffff1673ffffffffffffffffffffffffffffffffffffffff16815260200190815260200160002060009054906101000a900460ff1660ff1614610d4057600080fd5b6000600389604051610d5291906118c9565b90815260200160405180910390206040518060e0016040529081600082018054610d7b90611b4e565b80601f0160208091040260200160405190810160405280929190818152602001828054610da790611b4e565b8015610df45780601f10610dc957610100808354040283529160200191610df4565b820191906000526020600020905b815481529060010190602001808311610dd757829003601f168201915b50505050508152602001600182018054610e0d90611b4e565b80601f0160208091040260200160405190810160405280929190818152602001828054610e3990611b4e565b8015610e865780601f10610e5b57610100808354040283529160200191610e86565b820191906000526020600020905b815481529060010190602001808311610e6957829003601f168201915b50505050508152602001600282018054610e9f90611b4e565b80601f0160208091040260200160405190810160405280929190818152602001828054610ecb90611b4e565b8015610f185780601f10610eed57610100808354040283529160200191610f18565b820191906000526020600020905b815481529060010190602001808311610efb57829003601f168201915b50505050508152602001600382015481526020016004820154815260200160058201548152602001600682018054610f4f90611b4e565b80601f0160208091040260200160405190810160405280929190818152602001828054610f7b90611b4e565b8015610fc85780601f10610f9d57610100808354040283529160200191610fc8565b820191906000526020600020905b815481529060010190602001808311610fab57829003601f168201915b5050505050815250509050806000015181602001518260400151836060015184608001518560a001518660c00151975097509750975097509750975050919395979092949650565b60008060009054906101000a900473ffffffffffffffffffffffffffffffffffffffff1673ffffffffffffffffffffffffffffffffffffffff163373ffffffffffffffffffffffffffffffffffffffff161461106b57600080fd5b6001905090565b600033600160006101000a81548173ffffffffffffffffffffffffffffffffffffffff021916908373ffffffffffffffffffffffffffffffffffffffff1602179055506001600460003373ffffffffffffffffffffffffffffffffffffffff1673ffffffffffffffffffffffffffffffffffffffff16815260200190815260200160002060009054906101000a900460ff1660ff161461111157600080fd5b856006600101908051906020019061112a9291906113c7565b5084600660020181905550866006600001908051906020019061114e9291906113c7565b5082600660030190805190602001906111689291906113c7565b5081600660050190805190602001906111829291906113c7565b50836006600401908051906020019061119c9291906113c7565b5060066002886040516111af91906118c9565b908152602001604051809103902060008201816000019080546111d190611b4e565b6111dc92919061144d565b5060018201816001019080546111f190611b4e565b6111fc92919061144d565b5060028201548160020155600382018160030190805461121b90611b4e565b61122692919061144d565b50600482018160040190805461123b90611b4e565b61124692919061144d565b50600582018160050190805461125b90611b4e565b61126692919061144d565b50905050600190509695505050505050565b60008054906101000a900473ffffffffffffffffffffffffffffffffffffffff1673ffffffffffffffffffffffffffffffffffffffff163373ffffffffffffffffffffffffffffffffffffffff16146112d057600080fd5b600073ffffffffffffffffffffffffffffffffffffffff168173ffffffffffffffffffffffffffffffffffffffff16141561130a57600080fd5b8073ffffffffffffffffffffffffffffffffffffffff1660008054906101000a900473ffffffffffffffffffffffffffffffffffffffff1673ffffffffffffffffffffffffffffffffffffffff167f8be0079c531659141344cd1fd0a4f28419497f9722a3daafe3b4186f6b6457e060405160405180910390a3806000806101000a81548173ffffffffffffffffffffffffffffffffffffffff021916908373ffffffffffffffffffffffffffffffffffffffff16021790555050565b8280546113d390611b4e565b90600052602060002090601f0160209004810192826113f5576000855561143c565b82601f1061140e57805160ff191683800117855561143c565b8280016001018555821561143c579182015b8281111561143b578251825591602001919060010190611420565b5b50905061144991906114da565b5090565b82805461145990611b4e565b90600052602060002090601f01602090048101928261147b57600085556114c9565b82601f1061148c57805485556114c9565b828001600101855582156114c957600052602060002091601f016020900482015b828111156114c85782548255916001019190600101906114ad565b5b5090506114d691906114da565b5090565b5b808211156114f35760008160009055506001016114db565b5090565b600061150a61150584611a6c565b611a47565b90508281526020810184848401111561152657611525611c14565b5b611531848285611b0c565b509392505050565b60008135905061154881611c34565b92915050565b600082601f83011261156357611562611c0f565b5b81356115738482602086016114f7565b91505092915050565b60008135905061158b81611c4b565b92915050565b6000602082840312156115a7576115a6611c1e565b5b60006115b584828501611539565b91505092915050565b6000602082840312156115d4576115d3611c1e565b5b600082013567ffffffffffffffff8111156115f2576115f1611c19565b5b6115fe8482850161154e565b91505092915050565b600080600080600080600060e0888a03121561162657611625611c1e565b5b600088013567ffffffffffffffff81111561164457611643611c19565b5b6116508a828b0161154e565b975050602088013567ffffffffffffffff81111561167157611670611c19565b5b61167d8a828b0161154e565b965050604088013567ffffffffffffffff81111561169e5761169d611c19565b5b6116aa8a828b0161154e565b95505060606116bb8a828b0161157c565b94505060806116cc8a828b0161157c565b93505060a06116dd8a828b0161157c565b92505060c088013567ffffffffffffffff8111156116fe576116fd611c19565b5b61170a8a828b0161154e565b91505092959891949750929550565b60008060008060008060c0878903121561173657611735611c1e565b5b600087013567ffffffffffffffff81111561175457611753611c19565b5b61176089828a0161154e565b965050602087013567ffffffffffffffff81111561178157611780611c19565b5b61178d89828a0161154e565b955050604061179e89828a0161157c565b945050606087013567ffffffffffffffff8111156117bf576117be611c19565b5b6117cb89828a0161154e565b935050608087013567ffffffffffffffff8111156117ec576117eb611c19565b5b6117f889828a0161154e565b92505060a087013567ffffffffffffffff81111561181957611818611c19565b5b61182589828a0161154e565b9150509295509295509295565b61183b81611ac4565b82525050565b61184a81611ad6565b82525050565b600061185b82611a9d565b6118658185611aa8565b9350611875818560208601611b1b565b61187e81611c23565b840191505092915050565b600061189482611a9d565b61189e8185611ab9565b93506118ae818560208601611b1b565b80840191505092915050565b6118c381611b02565b82525050565b60006118d58284611889565b915081905092915050565b60006020820190506118f56000830184611832565b92915050565b60006020820190506119106000830184611841565b92915050565b600060208201905081810360008301526119308184611850565b905092915050565b600060e0820190508181036000830152611952818a611850565b905081810360208301526119668189611850565b9050818103604083015261197a8188611850565b905061198960608301876118ba565b61199660808301866118ba565b6119a360a08301856118ba565b81810360c08301526119b58184611850565b905098975050505050505050565b600060c08201905081810360008301526119dd8189611850565b905081810360208301526119f18188611850565b9050611a0060408301876118ba565b8181036060830152611a128186611850565b90508181036080830152611a268185611850565b905081810360a0830152611a3a8184611850565b9050979650505050505050565b6000611a51611a62565b9050611a5d8282611b80565b919050565b6000604051905090565b600067ffffffffffffffff821115611a8757611a86611be0565b5b611a9082611c23565b9050602081019050919050565b600081519050919050565b600082825260208201905092915050565b600081905092915050565b6000611acf82611ae2565b9050919050565b60008115159050919050565b600073ffffffffffffffffffffffffffffffffffffffff82169050919050565b6000819050919050565b82818337600083830152505050565b60005b83811015611b39578082015181840152602081019050611b1e565b83811115611b48576000848401525b50505050565b60006002820490506001821680611b6657607f821691505b60208210811415611b7a57611b79611bb1565b5b50919050565b611b8982611c23565b810181811067ffffffffffffffff82111715611ba857611ba7611be0565b5b80604052505050565b7f4e487b7100000000000000000000000000000000000000000000000000000000600052602260045260246000fd5b7f4e487b7100000000000000000000000000000000000000000000000000000000600052604160045260246000fd5b600080fd5b600080fd5b600080fd5b600080fd5b6000601f19601f8301169050919050565b611c3d81611ac4565b8114611c4857600080fd5b50565b611c5481611b02565b8114611c5f57600080fd5b5056fea2646970667358221220e35e850596413000dfbbe1daaaa008fe2d57670a025df741aebc87a06f39657e64736f6c63430008060033",
  "immutableReferences": {},
  "source": "pragma solidity >=0.5.0 < 0.9.0;\r\n\r\nimport \"./ContractOwnable.sol\";\r\n\r\ncontract LabResource is ContractOwnable {\r\n    \r\n    address public lastAccess;\r\n    constructor() public {\r\n        authorizedCaller[msg.sender] = 1;\r\n        emit AuthorizedCaller(msg.sender);\r\n    }\r\n    \r\n    /* Events */\r\n    event AuthorizedCaller(address caller);\r\n    event DeAuthorizedCaller(address caller);\r\n    \r\n    /* Modifiers */\r\n    \r\n    modifier onlyAuthCaller(){\r\n        lastAccess = msg.sender;\r\n        require(authorizedCaller[msg.sender] == 1);\r\n        _;\r\n    }\r\n    \r\n\r\n\r\n    /* User Related */\r\n    struct user {\r\n        string id;\r\n        string name;\r\n        uint contactNo;\r\n        string designation;\r\n        string role;\r\n        string department;\r\n    } \r\n    \r\n    mapping(string => user) userDetails;\r\n    mapping(string=>Device) deviceDetails;\r\n    \r\n    /* Caller Mapping */\r\n    mapping(address => uint8) authorizedCaller;\r\n\r\n\r\n    \r\n    /* authorize caller */\r\n    function authorizeCaller(address _caller) public onlyOwner returns(bool) \r\n    {\r\n        authorizedCaller[_caller] = 1;\r\n        emit AuthorizedCaller(_caller);\r\n        return true;\r\n    }\r\n    \r\n    /* deauthorize caller */\r\n    function deAuthorizeCaller(address _caller) public onlyOwner returns(bool) \r\n    {\r\n        authorizedCaller[_caller] = 0;\r\n        emit DeAuthorizedCaller(_caller);\r\n        return true;\r\n    }\r\n    \r\n    /*User Roles\r\n        ADMIN,\r\n        LAB ASSISTANTS        \r\n    */\r\n\r\n    mapping (string => string) nextAction;\r\n    \r\n    user userDetail;\r\n    \r\n    function getUserRole() public view onlyOwner returns(bool)\r\n    {\r\n        return true;\r\n    }\r\n    \r\n    /* Get Next Action  */    \r\n    function getNextAction(string memory _deviceid) public  onlyAuthCaller returns(string memory) \r\n    {\r\n        return nextAction[_deviceid];\r\n    }\r\n        \r\n    /*set user details*/\r\n    function setUser(\r\n                     string memory _facultyid,\r\n                     string memory _name, \r\n                     uint _contactNo, \r\n                     string memory _role,\r\n                     string memory _designation,\r\n                     string memory _department) public onlyAuthCaller returns(bool){\r\n        \r\n        /*store data into struct*/\r\n        userDetail.name = _name;\r\n        userDetail.contactNo = _contactNo;\r\n        userDetail.id=_facultyid;\r\n        userDetail.designation=_designation;\r\n        userDetail.department=_department;\r\n        userDetail.role=_role;\r\n        /*store data into mapping*/\r\n        userDetails[_facultyid] = userDetail;\r\n\r\n        \r\n        return true;\r\n    }  \r\n    \r\n    function getUser(string memory id) public onlyAuthCaller returns( string memory userid,\r\n                                                                    string memory name, \r\n                                                                    uint contactNo, \r\n                                                                    string memory role,\r\n                                                                    string memory designation,\r\n                                                                    string memory department)\r\n    {\r\n        /*Getting value from struct*/\r\n        user memory tmpData = userDetails[id];\r\n        \r\n        return (tmpData.id,tmpData.name, tmpData.contactNo, tmpData.role, tmpData.designation,tmpData.department);\r\n    }\r\n    \r\n    \r\n    struct Device\r\n    {\r\n        string deviceid;\r\n        string name;     \r\n        string brand;\r\n        uint purchasedate;\r\n        uint price;\r\n        uint purchasereceiptno;\r\n        string description;\r\n    }\r\n\r\n    function addDevice(string memory _deviceid, \r\n                        string memory _name,\r\n                        string memory _brand,\r\n                        uint _purchasedate,\r\n                        uint _price,\r\n                        uint _purchasereceiptno,\r\n                        string memory _description)public onlyAuthCaller returns(bool)\r\n    {\r\n        Device memory tempDevice=Device(_deviceid,_name,_brand,_purchasedate,_price,_purchasereceiptno,_description);\r\n\r\n        deviceDetails[_deviceid] = tempDevice;\r\n        return true;\r\n\r\n    }\r\n\r\n    function getDeviceDetails(string memory deviceid) \r\n                public onlyAuthCaller returns(string memory _deviceid,\r\n                                    string memory _name,\r\n                                    string memory _brand,\r\n                                    uint _purchasedate,\r\n                                    uint _price,\r\n                                    uint _purchasereceiptno,\r\n                                    string memory _description)\r\n    {\r\n        Device memory tempDevice=deviceDetails[deviceid];\r\n    \r\n        return (tempDevice.deviceid,tempDevice.name,tempDevice.brand,tempDevice.purchasedate,tempDevice.price,tempDevice.purchasereceiptno,tempDevice.description);\r\n    }\r\n\r\n    \r\n   \r\n}    ",
  "sourcePath": "C:\\xampp\\htdocs\\STCPROJECT\\STC\\WEB\\contracts\\LabResource.sol",
  "compiler": {
    "name": "solc",
    "version": "0.8.6+commit.11564f7e.Emscripten.clang"
  },
  "schemaVersion": "3.4.3",
  "updatedAt": "2021-11-24T14:33:29.668Z",
  "networkType": "ethereum",
  "devdoc": {
    "kind": "dev",
    "methods": {},
    "version": 1
  },
  "userdoc": {
    "kind": "user",
    "methods": {},
    "version": 1
  }
}