{
  "contractName": "MainContract",
  "abi": [
    {
      "inputs": [
        {
          "internalType": "address",
          "name": "_labresourceAddress",
          "type": "address"
        }
      ],
      "stateMutability": "nonpayable",
      "type": "constructor"
    },
    {
      "anonymous": false,
      "inputs": [
        {
          "indexed": true,
          "internalType": "address",
          "name": "previousOwner",
          "type": "address"
        }
      ],
      "name": "OwnershipRenounced",
      "type": "event"
    },
    {
      "anonymous": false,
      "inputs": [
        {
          "indexed": true,
          "internalType": "address",
          "name": "previousOwner",
          "type": "address"
        },
        {
          "indexed": true,
          "internalType": "address",
          "name": "newOwner",
          "type": "address"
        }
      ],
      "name": "OwnershipTransferred",
      "type": "event"
    },
    {
      "anonymous": false,
      "inputs": [
        {
          "indexed": true,
          "internalType": "string",
          "name": "id",
          "type": "string"
        }
      ],
      "name": "RegisterDeviceEvent",
      "type": "event"
    },
    {
      "anonymous": false,
      "inputs": [
        {
          "indexed": true,
          "internalType": "string",
          "name": "id",
          "type": "string"
        }
      ],
      "name": "SetLocationEvent",
      "type": "event"
    },
    {
      "inputs": [],
      "name": "owner",
      "outputs": [
        {
          "internalType": "address",
          "name": "",
          "type": "address"
        }
      ],
      "stateMutability": "view",
      "type": "function",
      "constant": true
    },
    {
      "inputs": [],
      "name": "renounceOwnership",
      "outputs": [],
      "stateMutability": "nonpayable",
      "type": "function"
    },
    {
      "inputs": [
        {
          "internalType": "address",
          "name": "newOwner",
          "type": "address"
        }
      ],
      "name": "transferOwnership",
      "outputs": [],
      "stateMutability": "nonpayable",
      "type": "function"
    },
    {
      "inputs": [
        {
          "internalType": "string",
          "name": "deviceid",
          "type": "string"
        }
      ],
      "name": "getDeviceDetails",
      "outputs": [
        {
          "internalType": "string",
          "name": "_deviceid",
          "type": "string"
        },
        {
          "internalType": "string",
          "name": "_name",
          "type": "string"
        },
        {
          "internalType": "string",
          "name": "_brand",
          "type": "string"
        },
        {
          "internalType": "uint256",
          "name": "_purchasedate",
          "type": "uint256"
        },
        {
          "internalType": "uint256",
          "name": "_price",
          "type": "uint256"
        },
        {
          "internalType": "uint256",
          "name": "_purchasereceiptno",
          "type": "uint256"
        },
        {
          "internalType": "string",
          "name": "_description",
          "type": "string"
        }
      ],
      "stateMutability": "nonpayable",
      "type": "function"
    },
    {
      "inputs": [
        {
          "internalType": "string",
          "name": "_deviceid",
          "type": "string"
        },
        {
          "internalType": "string",
          "name": "_name",
          "type": "string"
        },
        {
          "internalType": "string",
          "name": "_brand",
          "type": "string"
        },
        {
          "internalType": "uint256",
          "name": "_purchasedate",
          "type": "uint256"
        },
        {
          "internalType": "uint256",
          "name": "_price",
          "type": "uint256"
        },
        {
          "internalType": "uint256",
          "name": "_purchasereceiptno",
          "type": "uint256"
        },
        {
          "internalType": "string",
          "name": "_description",
          "type": "string"
        }
      ],
      "name": "RegisterDevice",
      "outputs": [
        {
          "internalType": "bool",
          "name": "",
          "type": "bool"
        }
      ],
      "stateMutability": "nonpayable",
      "type": "function"
    }
  ],
  "bytecode": "0x608060405234801561001057600080fd5b50604051610f33380380610f33833981810160405281019061003291906100ce565b336000806101000a81548173ffffffffffffffffffffffffffffffffffffffff021916908373ffffffffffffffffffffffffffffffffffffffff16021790555080600160006101000a81548173ffffffffffffffffffffffffffffffffffffffff021916908373ffffffffffffffffffffffffffffffffffffffff16021790555050610149565b6000815190506100c881610132565b92915050565b6000602082840312156100e4576100e361012d565b5b60006100f2848285016100b9565b91505092915050565b60006101068261010d565b9050919050565b600073ffffffffffffffffffffffffffffffffffffffff82169050919050565b600080fd5b61013b816100fb565b811461014657600080fd5b50565b610ddb806101586000396000f3fe608060405234801561001057600080fd5b50600436106100575760003560e01c80632464e8441461005c578063715018a61461008c5780638da5cb5b14610096578063b858d3a5146100b4578063f2fde38b146100ea575b600080fd5b610076600480360381019061007191906107b3565b610106565b6040516100839190610ac3565b60405180910390f35b610094610286565b005b61009e610384565b6040516100ab9190610aa8565b60405180910390f35b6100ce60048036038101906100c9919061076a565b6103a8565b6040516100e19796959493929190610b00565b60405180910390f35b61010460048036038101906100ff9190610710565b61048d565b005b6000338073ffffffffffffffffffffffffffffffffffffffff163373ffffffffffffffffffffffffffffffffffffffff1614610177576040517f08c379a000000000000000000000000000000000000000000000000000000000815260040161016e90610b8b565b60405180910390fd5b6000600160009054906101000a900473ffffffffffffffffffffffffffffffffffffffff1673ffffffffffffffffffffffffffffffffffffffff1663049121b58b8b8b8b8b8b8b6040518863ffffffff1660e01b81526004016101e09796959493929190610b00565b602060405180830381600087803b1580156101fa57600080fd5b505af115801561020e573d6000803e3d6000fd5b505050506040513d601f19601f82011682018060405250810190610232919061073d565b9050896040516102429190610a91565b60405180910390207f332d74ec932e1f57e9fe58ce5cd723be4ed059e8cee22e0228c494f8b131514460405160405180910390a28092505050979650505050505050565b60008054906101000a900473ffffffffffffffffffffffffffffffffffffffff1673ffffffffffffffffffffffffffffffffffffffff163373ffffffffffffffffffffffffffffffffffffffff16146102de57600080fd5b60008054906101000a900473ffffffffffffffffffffffffffffffffffffffff1673ffffffffffffffffffffffffffffffffffffffff167ff8df31144d9c2f0f6b59d69b8b98abd5459d07f2742c4df920b25aae33c6482060405160405180910390a260008060006101000a81548173ffffffffffffffffffffffffffffffffffffffff021916908373ffffffffffffffffffffffffffffffffffffffff160217905550565b60008054906101000a900473ffffffffffffffffffffffffffffffffffffffff1681565b606080606060008060006060600160009054906101000a900473ffffffffffffffffffffffffffffffffffffffff1673ffffffffffffffffffffffffffffffffffffffff1663b858d3a5896040518263ffffffff1660e01b815260040161040f9190610ade565b600060405180830381600087803b15801561042957600080fd5b505af115801561043d573d6000803e3d6000fd5b505050506040513d6000823e3d601f19601f8201168201806040525081019061046691906108c5565b809750819850829950839a50849b50859c50869d5050505050505050919395979092949650565b60008054906101000a900473ffffffffffffffffffffffffffffffffffffffff1673ffffffffffffffffffffffffffffffffffffffff163373ffffffffffffffffffffffffffffffffffffffff16146104e557600080fd5b600073ffffffffffffffffffffffffffffffffffffffff168173ffffffffffffffffffffffffffffffffffffffff16141561051f57600080fd5b8073ffffffffffffffffffffffffffffffffffffffff1660008054906101000a900473ffffffffffffffffffffffffffffffffffffffff1673ffffffffffffffffffffffffffffffffffffffff167f8be0079c531659141344cd1fd0a4f28419497f9722a3daafe3b4186f6b6457e060405160405180910390a3806000806101000a81548173ffffffffffffffffffffffffffffffffffffffff021916908373ffffffffffffffffffffffffffffffffffffffff16021790555050565b60006105ef6105ea84610bd0565b610bab565b90508281526020810184848401111561060b5761060a610d17565b5b610616848285610c70565b509392505050565b600061063161062c84610bd0565b610bab565b90508281526020810184848401111561064d5761064c610d17565b5b610658848285610c7f565b509392505050565b60008135905061066f81610d60565b92915050565b60008151905061068481610d77565b92915050565b600082601f83011261069f5761069e610d12565b5b81356106af8482602086016105dc565b91505092915050565b600082601f8301126106cd576106cc610d12565b5b81516106dd84826020860161061e565b91505092915050565b6000813590506106f581610d8e565b92915050565b60008151905061070a81610d8e565b92915050565b60006020828403121561072657610725610d21565b5b600061073484828501610660565b91505092915050565b60006020828403121561075357610752610d21565b5b600061076184828501610675565b91505092915050565b6000602082840312156107805761077f610d21565b5b600082013567ffffffffffffffff81111561079e5761079d610d1c565b5b6107aa8482850161068a565b91505092915050565b600080600080600080600060e0888a0312156107d2576107d1610d21565b5b600088013567ffffffffffffffff8111156107f0576107ef610d1c565b5b6107fc8a828b0161068a565b975050602088013567ffffffffffffffff81111561081d5761081c610d1c565b5b6108298a828b0161068a565b965050604088013567ffffffffffffffff81111561084a57610849610d1c565b5b6108568a828b0161068a565b95505060606108678a828b016106e6565b94505060806108788a828b016106e6565b93505060a06108898a828b016106e6565b92505060c088013567ffffffffffffffff8111156108aa576108a9610d1c565b5b6108b68a828b0161068a565b91505092959891949750929550565b600080600080600080600060e0888a0312156108e4576108e3610d21565b5b600088015167ffffffffffffffff81111561090257610901610d1c565b5b61090e8a828b016106b8565b975050602088015167ffffffffffffffff81111561092f5761092e610d1c565b5b61093b8a828b016106b8565b965050604088015167ffffffffffffffff81111561095c5761095b610d1c565b5b6109688a828b016106b8565b95505060606109798a828b016106fb565b945050608061098a8a828b016106fb565b93505060a061099b8a828b016106fb565b92505060c088015167ffffffffffffffff8111156109bc576109bb610d1c565b5b6109c88a828b016106b8565b91505092959891949750929550565b6109e081610c28565b82525050565b6109ef81610c3a565b82525050565b6000610a0082610c01565b610a0a8185610c0c565b9350610a1a818560208601610c7f565b610a2381610d26565b840191505092915050565b6000610a3982610c01565b610a438185610c1d565b9350610a53818560208601610c7f565b80840191505092915050565b6000610a6c600c83610c0c565b9150610a7782610d37565b602082019050919050565b610a8b81610c66565b82525050565b6000610a9d8284610a2e565b915081905092915050565b6000602082019050610abd60008301846109d7565b92915050565b6000602082019050610ad860008301846109e6565b92915050565b60006020820190508181036000830152610af881846109f5565b905092915050565b600060e0820190508181036000830152610b1a818a6109f5565b90508181036020830152610b2e81896109f5565b90508181036040830152610b4281886109f5565b9050610b516060830187610a82565b610b5e6080830186610a82565b610b6b60a0830185610a82565b81810360c0830152610b7d81846109f5565b905098975050505050505050565b60006020820190508181036000830152610ba481610a5f565b9050919050565b6000610bb5610bc6565b9050610bc18282610cb2565b919050565b6000604051905090565b600067ffffffffffffffff821115610beb57610bea610ce3565b5b610bf482610d26565b9050602081019050919050565b600081519050919050565b600082825260208201905092915050565b600081905092915050565b6000610c3382610c46565b9050919050565b60008115159050919050565b600073ffffffffffffffffffffffffffffffffffffffff82169050919050565b6000819050919050565b82818337600083830152505050565b60005b83811015610c9d578082015181840152602081019050610c82565b83811115610cac576000848401525b50505050565b610cbb82610d26565b810181811067ffffffffffffffff82111715610cda57610cd9610ce3565b5b80604052505050565b7f4e487b7100000000000000000000000000000000000000000000000000000000600052604160045260246000fd5b600080fd5b600080fd5b600080fd5b600080fd5b6000601f19601f8301169050919050565b7f4e6f742056657269666965640000000000000000000000000000000000000000600082015250565b610d6981610c28565b8114610d7457600080fd5b50565b610d8081610c3a565b8114610d8b57600080fd5b50565b610d9781610c66565b8114610da257600080fd5b5056fea2646970667358221220465b64b279c93f33b0437bccd9cbb5554bde824fd4f5bec277643c34e8b26dca64736f6c63430008060033",
  "immutableReferences": {},
  "source": "pragma solidity >=0.5.0 < 0.9.0;\r\nimport \"./LabResource.sol\";\r\nimport \"./Ownable.sol\";\r\n\r\ncontract MainContract is Ownable\r\n{\r\n  \r\n    event RegisterDeviceEvent(string indexed id);\r\n    event SetLocationEvent(string indexed id);\r\n\r\n    \r\n    LabResource labresource;\r\n\r\n\r\n    modifier isValidPerformer(address add) {\r\n        \r\n        require(msg.sender==add,\"Not Verified\");\r\n        _;\r\n  \r\n    }\r\n    \r\n    \r\n    constructor(address _labresourceAddress) public {\r\n        labresource = LabResource(_labresourceAddress);\r\n    }\r\n    \r\n    \r\n    \r\n    \r\n    function getDeviceDetails(string memory  deviceid) public returns (\r\n                        string memory _deviceid, \r\n                        string memory _name,\r\n                        string memory _brand,\r\n                        uint _purchasedate,\r\n                        uint _price,\r\n                        uint _purchasereceiptno,\r\n                        string memory _description) {\r\n        \r\n        (_deviceid,_name,_brand,_purchasedate,_price,_purchasereceiptno,_description)\r\n         =labresource.getDeviceDetails(deviceid);  \r\n         \r\n         return (_deviceid,_name,_brand,_purchasedate,_price,_purchasereceiptno,_description);\r\n \r\n    }\r\n    \r\n    function RegisterDevice(string memory _deviceid, \r\n                        string memory _name,\r\n                        string memory _brand,\r\n                        uint _purchasedate,\r\n                        uint _price,\r\n                        uint _purchasereceiptno,\r\n                        string memory _description) public isValidPerformer (msg.sender) returns(bool) {\r\n                                    \r\n        bool status = labresource.addDevice(_deviceid,_name,_brand,_purchasedate,_price,_purchasereceiptno,_description);  \r\n        \r\n        emit RegisterDeviceEvent(_deviceid);\r\n        return (status);\r\n    }\r\n}",
  "sourcePath": "C:\\xampp\\htdocs\\STCPROJECT\\STC\\WEB\\contracts\\MainContract.sol",
  "compiler": {
    "name": "solc",
    "version": "0.8.6+commit.11564f7e.Emscripten.clang"
  },
  "schemaVersion": "3.4.3",
  "updatedAt": "2021-11-24T14:33:29.679Z",
  "networkType": "ethereum",
  "devdoc": {
    "kind": "dev",
    "methods": {},
    "version": 1
  },
  "userdoc": {
    "kind": "user",
    "methods": {},
    "version": 1
  }
}