{
  "contractName": "UserManagement",
  "abi": [
    {
      "inputs": [
        {
          "internalType": "address",
          "name": "_address",
          "type": "address"
        }
      ],
      "stateMutability": "nonpayable",
      "type": "constructor"
    },
    {
      "anonymous": false,
      "inputs": [
        {
          "indexed": true,
          "internalType": "address",
          "name": "previousOwner",
          "type": "address"
        }
      ],
      "name": "OwnershipRenounced",
      "type": "event"
    },
    {
      "anonymous": false,
      "inputs": [
        {
          "indexed": true,
          "internalType": "address",
          "name": "previousOwner",
          "type": "address"
        },
        {
          "indexed": true,
          "internalType": "address",
          "name": "newOwner",
          "type": "address"
        }
      ],
      "name": "OwnershipTransferred",
      "type": "event"
    },
    {
      "anonymous": false,
      "inputs": [
        {
          "indexed": true,
          "internalType": "string",
          "name": "id",
          "type": "string"
        },
        {
          "indexed": false,
          "internalType": "string",
          "name": "role",
          "type": "string"
        }
      ],
      "name": "UserRoleUpdate",
      "type": "event"
    },
    {
      "anonymous": false,
      "inputs": [
        {
          "indexed": true,
          "internalType": "string",
          "name": "id",
          "type": "string"
        },
        {
          "indexed": false,
          "internalType": "string",
          "name": "name",
          "type": "string"
        },
        {
          "indexed": false,
          "internalType": "uint256",
          "name": "contactNo",
          "type": "uint256"
        },
        {
          "indexed": false,
          "internalType": "string",
          "name": "designation",
          "type": "string"
        },
        {
          "indexed": false,
          "internalType": "string",
          "name": "role",
          "type": "string"
        },
        {
          "indexed": false,
          "internalType": "string",
          "name": "department",
          "type": "string"
        }
      ],
      "name": "UserUpdate",
      "type": "event"
    },
    {
      "inputs": [],
      "name": "owner",
      "outputs": [
        {
          "internalType": "address",
          "name": "",
          "type": "address"
        }
      ],
      "stateMutability": "view",
      "type": "function",
      "constant": true
    },
    {
      "inputs": [],
      "name": "renounceOwnership",
      "outputs": [],
      "stateMutability": "nonpayable",
      "type": "function"
    },
    {
      "inputs": [
        {
          "internalType": "address",
          "name": "newOwner",
          "type": "address"
        }
      ],
      "name": "transferOwnership",
      "outputs": [],
      "stateMutability": "nonpayable",
      "type": "function"
    },
    {
      "inputs": [
        {
          "internalType": "string",
          "name": "_facultyid",
          "type": "string"
        },
        {
          "internalType": "string",
          "name": "_name",
          "type": "string"
        },
        {
          "internalType": "uint256",
          "name": "_contactNo",
          "type": "uint256"
        },
        {
          "internalType": "string",
          "name": "_role",
          "type": "string"
        },
        {
          "internalType": "string",
          "name": "_designation",
          "type": "string"
        },
        {
          "internalType": "string",
          "name": "_department",
          "type": "string"
        }
      ],
      "name": "updateUser",
      "outputs": [
        {
          "internalType": "bool",
          "name": "",
          "type": "bool"
        }
      ],
      "stateMutability": "nonpayable",
      "type": "function"
    },
    {
      "inputs": [
        {
          "internalType": "string",
          "name": "_facultyid",
          "type": "string"
        },
        {
          "internalType": "string",
          "name": "_name",
          "type": "string"
        },
        {
          "internalType": "uint256",
          "name": "_contactNo",
          "type": "uint256"
        },
        {
          "internalType": "string",
          "name": "_role",
          "type": "string"
        },
        {
          "internalType": "string",
          "name": "_designation",
          "type": "string"
        },
        {
          "internalType": "string",
          "name": "_department",
          "type": "string"
        }
      ],
      "name": "updateUserForAdmin",
      "outputs": [
        {
          "internalType": "bool",
          "name": "",
          "type": "bool"
        }
      ],
      "stateMutability": "nonpayable",
      "type": "function"
    },
    {
      "inputs": [
        {
          "internalType": "string",
          "name": "_facultyid",
          "type": "string"
        }
      ],
      "name": "getUser",
      "outputs": [
        {
          "internalType": "string",
          "name": "facultyid",
          "type": "string"
        },
        {
          "internalType": "string",
          "name": "name",
          "type": "string"
        },
        {
          "internalType": "uint256",
          "name": "contactNo",
          "type": "uint256"
        },
        {
          "internalType": "string",
          "name": "role",
          "type": "string"
        },
        {
          "internalType": "string",
          "name": "designation",
          "type": "string"
        },
        {
          "internalType": "string",
          "name": "department",
          "type": "string"
        }
      ],
      "stateMutability": "nonpayable",
      "type": "function"
    }
  ],
  "bytecode": "0x60806040523480156200001157600080fd5b506040516200116e3803806200116e8339818101604052810190620000379190620000d6565b336000806101000a81548173ffffffffffffffffffffffffffffffffffffffff021916908373ffffffffffffffffffffffffffffffffffffffff16021790555080600160006101000a81548173ffffffffffffffffffffffffffffffffffffffff021916908373ffffffffffffffffffffffffffffffffffffffff160217905550506200015b565b600081519050620000d08162000141565b92915050565b600060208284031215620000ef57620000ee6200013c565b5b6000620000ff84828501620000bf565b91505092915050565b600062000115826200011c565b9050919050565b600073ffffffffffffffffffffffffffffffffffffffff82169050919050565b600080fd5b6200014c8162000108565b81146200015857600080fd5b50565b611003806200016b6000396000f3fe608060405234801561001057600080fd5b50600436106100625760003560e01c806314526b851461006757806331feb67114610097578063715018a6146100cc5780638da5cb5b146100d6578063daf71b22146100f4578063f2fde38b14610124575b600080fd5b610081600480360381019061007c91906109d1565b610140565b60405161008e9190610ccc565b60405180910390f35b6100b160048036038101906100ac9190610988565b6102e6565b6040516100c396959493929190610d09565b60405180910390f35b6100d46103c3565b005b6100de6104c1565b6040516100eb9190610cb1565b60405180910390f35b61010e600480360381019061010991906109d1565b6104e5565b60405161011b9190610ccc565b60405180910390f35b61013e6004803603810190610139919061092e565b6106ab565b005b60008073ffffffffffffffffffffffffffffffffffffffff163373ffffffffffffffffffffffffffffffffffffffff16141561017b57600080fd5b6000600160009054906101000a900473ffffffffffffffffffffffffffffffffffffffff1673ffffffffffffffffffffffffffffffffffffffff1663e49455fb8989898989896040518763ffffffff1660e01b81526004016101e296959493929190610d09565b602060405180830381600087803b1580156101fc57600080fd5b505af1158015610210573d6000803e3d6000fd5b505050506040513d601f19601f82011682018060405250810190610234919061095b565b9050876040516102449190610c9a565b60405180910390207f5e729656fcc083a77bfb67b7935818f686192a7b883b77f0180b6f4cca108a3b8888888888604051610283959493929190610d8d565b60405180910390a2876040516102999190610c9a565b60405180910390207f9ec2479cdb9c8e7a059d33c569080494f71d84cef2588a0b7e8746e3706ba732866040516102d09190610ce7565b60405180910390a2809150509695505050505050565b60608060006060806060600160009054906101000a900473ffffffffffffffffffffffffffffffffffffffff1673ffffffffffffffffffffffffffffffffffffffff166331feb671886040518263ffffffff1660e01b815260040161034b9190610ce7565b600060405180830381600087803b15801561036557600080fd5b505af1158015610379573d6000803e3d6000fd5b505050506040513d6000823e3d601f19601f820116820180604052508101906103a29190610aea565b809650819750829850839950849a50859b5050505050505091939550919395565b60008054906101000a900473ffffffffffffffffffffffffffffffffffffffff1673ffffffffffffffffffffffffffffffffffffffff163373ffffffffffffffffffffffffffffffffffffffff161461041b57600080fd5b60008054906101000a900473ffffffffffffffffffffffffffffffffffffffff1673ffffffffffffffffffffffffffffffffffffffff167ff8df31144d9c2f0f6b59d69b8b98abd5459d07f2742c4df920b25aae33c6482060405160405180910390a260008060006101000a81548173ffffffffffffffffffffffffffffffffffffffff021916908373ffffffffffffffffffffffffffffffffffffffff160217905550565b60008054906101000a900473ffffffffffffffffffffffffffffffffffffffff1681565b60008060009054906101000a900473ffffffffffffffffffffffffffffffffffffffff1673ffffffffffffffffffffffffffffffffffffffff163373ffffffffffffffffffffffffffffffffffffffff161461054057600080fd5b6000600160009054906101000a900473ffffffffffffffffffffffffffffffffffffffff1673ffffffffffffffffffffffffffffffffffffffff1663e49455fb8989898989896040518763ffffffff1660e01b81526004016105a796959493929190610d09565b602060405180830381600087803b1580156105c157600080fd5b505af11580156105d5573d6000803e3d6000fd5b505050506040513d601f19601f820116820180604052508101906105f9919061095b565b9050876040516106099190610c9a565b60405180910390207f5e729656fcc083a77bfb67b7935818f686192a7b883b77f0180b6f4cca108a3b8888888888604051610648959493929190610d8d565b60405180910390a28760405161065e9190610c9a565b60405180910390207f9ec2479cdb9c8e7a059d33c569080494f71d84cef2588a0b7e8746e3706ba732866040516106959190610ce7565b60405180910390a2809150509695505050505050565b60008054906101000a900473ffffffffffffffffffffffffffffffffffffffff1673ffffffffffffffffffffffffffffffffffffffff163373ffffffffffffffffffffffffffffffffffffffff161461070357600080fd5b600073ffffffffffffffffffffffffffffffffffffffff168173ffffffffffffffffffffffffffffffffffffffff16141561073d57600080fd5b8073ffffffffffffffffffffffffffffffffffffffff1660008054906101000a900473ffffffffffffffffffffffffffffffffffffffff1673ffffffffffffffffffffffffffffffffffffffff167f8be0079c531659141344cd1fd0a4f28419497f9722a3daafe3b4186f6b6457e060405160405180910390a3806000806101000a81548173ffffffffffffffffffffffffffffffffffffffff021916908373ffffffffffffffffffffffffffffffffffffffff16021790555050565b600061080d61080884610e21565b610dfc565b90508281526020810184848401111561082957610828610f68565b5b610834848285610ec1565b509392505050565b600061084f61084a84610e21565b610dfc565b90508281526020810184848401111561086b5761086a610f68565b5b610876848285610ed0565b509392505050565b60008135905061088d81610f88565b92915050565b6000815190506108a281610f9f565b92915050565b600082601f8301126108bd576108bc610f63565b5b81356108cd8482602086016107fa565b91505092915050565b600082601f8301126108eb576108ea610f63565b5b81516108fb84826020860161083c565b91505092915050565b60008135905061091381610fb6565b92915050565b60008151905061092881610fb6565b92915050565b60006020828403121561094457610943610f72565b5b60006109528482850161087e565b91505092915050565b60006020828403121561097157610970610f72565b5b600061097f84828501610893565b91505092915050565b60006020828403121561099e5761099d610f72565b5b600082013567ffffffffffffffff8111156109bc576109bb610f6d565b5b6109c8848285016108a8565b91505092915050565b60008060008060008060c087890312156109ee576109ed610f72565b5b600087013567ffffffffffffffff811115610a0c57610a0b610f6d565b5b610a1889828a016108a8565b965050602087013567ffffffffffffffff811115610a3957610a38610f6d565b5b610a4589828a016108a8565b9550506040610a5689828a01610904565b945050606087013567ffffffffffffffff811115610a7757610a76610f6d565b5b610a8389828a016108a8565b935050608087013567ffffffffffffffff811115610aa457610aa3610f6d565b5b610ab089828a016108a8565b92505060a087013567ffffffffffffffff811115610ad157610ad0610f6d565b5b610add89828a016108a8565b9150509295509295509295565b60008060008060008060c08789031215610b0757610b06610f72565b5b600087015167ffffffffffffffff811115610b2557610b24610f6d565b5b610b3189828a016108d6565b965050602087015167ffffffffffffffff811115610b5257610b51610f6d565b5b610b5e89828a016108d6565b9550506040610b6f89828a01610919565b945050606087015167ffffffffffffffff811115610b9057610b8f610f6d565b5b610b9c89828a016108d6565b935050608087015167ffffffffffffffff811115610bbd57610bbc610f6d565b5b610bc989828a016108d6565b92505060a087015167ffffffffffffffff811115610bea57610be9610f6d565b5b610bf689828a016108d6565b9150509295509295509295565b610c0c81610e79565b82525050565b610c1b81610e8b565b82525050565b6000610c2c82610e52565b610c368185610e5d565b9350610c46818560208601610ed0565b610c4f81610f77565b840191505092915050565b6000610c6582610e52565b610c6f8185610e6e565b9350610c7f818560208601610ed0565b80840191505092915050565b610c9481610eb7565b82525050565b6000610ca68284610c5a565b915081905092915050565b6000602082019050610cc66000830184610c03565b92915050565b6000602082019050610ce16000830184610c12565b92915050565b60006020820190508181036000830152610d018184610c21565b905092915050565b600060c0820190508181036000830152610d238189610c21565b90508181036020830152610d378188610c21565b9050610d466040830187610c8b565b8181036060830152610d588186610c21565b90508181036080830152610d6c8185610c21565b905081810360a0830152610d808184610c21565b9050979650505050505050565b600060a0820190508181036000830152610da78188610c21565b9050610db66020830187610c8b565b8181036040830152610dc88186610c21565b90508181036060830152610ddc8185610c21565b90508181036080830152610df08184610c21565b90509695505050505050565b6000610e06610e17565b9050610e128282610f03565b919050565b6000604051905090565b600067ffffffffffffffff821115610e3c57610e3b610f34565b5b610e4582610f77565b9050602081019050919050565b600081519050919050565b600082825260208201905092915050565b600081905092915050565b6000610e8482610e97565b9050919050565b60008115159050919050565b600073ffffffffffffffffffffffffffffffffffffffff82169050919050565b6000819050919050565b82818337600083830152505050565b60005b83811015610eee578082015181840152602081019050610ed3565b83811115610efd576000848401525b50505050565b610f0c82610f77565b810181811067ffffffffffffffff82111715610f2b57610f2a610f34565b5b80604052505050565b7f4e487b7100000000000000000000000000000000000000000000000000000000600052604160045260246000fd5b600080fd5b600080fd5b600080fd5b600080fd5b6000601f19601f8301169050919050565b610f9181610e79565b8114610f9c57600080fd5b50565b610fa881610e8b565b8114610fb357600080fd5b50565b610fbf81610eb7565b8114610fca57600080fd5b5056fea26469706673582212205c884ef097a419667313eeae0b027790c6f86df8d41357e620240ea3352e3d8364736f6c63430008060033",
  "immutableReferences": {},
  "source": "pragma solidity >=0.5.0 < 0.9.0;\r\nimport \"./LabResource.sol\";\r\nimport \"./Ownable.sol\";\r\n\r\ncontract UserManagement is Ownable\r\n{\r\n     \r\n    event UserUpdate(string indexed id, string name, uint contactNo, string designation, string role, string department);\r\n    event UserRoleUpdate(string indexed id, string role); \r\n    \r\n     /* Storage Variables */    \r\n    LabResource labresource;\r\n    \r\n    constructor(address _address) public {\r\n        labresource = LabResource(_address);\r\n    }\r\n    \r\n    \r\n     /* Create/Update User */\r\n\r\n    function updateUser(string memory _facultyid, string memory _name, uint  _contactNo, string memory _role,string memory _designation,string memory _department) public returns(bool)\r\n    {\r\n        require(msg.sender != address(0));\r\n        \r\n        /* Call Storage Contract */\r\n        bool status = labresource.setUser(_facultyid,_name, _contactNo, _role, _designation,_department);\r\n        \r\n         /*call event*/\r\n        emit UserUpdate(_facultyid,_name,_contactNo,_role,_designation,_department);\r\n        emit UserRoleUpdate(_facultyid,_role);\r\n        \r\n        return status;\r\n    }\r\n    \r\n    /* Create/Update User For Admin  */\r\n    function updateUserForAdmin(string memory _facultyid, string memory _name,  uint _contactNo, string memory _role,string memory _designation,string memory _department) public onlyOwner returns(bool)\r\n    {\r\n       // require(_userAddress != address(0));\r\n        \r\n        /* Call Storage Contract */\r\n        bool status = labresource.setUser(_facultyid, _name, _contactNo, _role, _designation, _department);\r\n        \r\n         /*call event*/\r\n        emit UserUpdate(_facultyid,_name,_contactNo,_role,_designation,_department);\r\n        emit UserRoleUpdate(_facultyid,_role);\r\n        \r\n        return status;\r\n    }\r\n    \r\n    /* get User */\r\n    function getUser(string memory _facultyid) public returns(string memory facultyid,string memory name, uint contactNo, string memory role, string memory designation , string memory department){\r\n   // require(_userAddress != address(0));\r\n        \r\n        /*Getting value from struct*/\r\n       (facultyid,name, contactNo, role, designation,department) = labresource.getUser(_facultyid);\r\n       \r\n       return (facultyid,name, contactNo, role,designation,department);\r\n    }\r\n}",
  "sourcePath": "C:\\xampp\\htdocs\\STCPROJECT\\STC\\WEB\\contracts\\UserManagement.sol",
  "compiler": {
    "name": "solc",
    "version": "0.8.6+commit.11564f7e.Emscripten.clang"
  },
  "schemaVersion": "3.4.3",
  "updatedAt": "2021-11-24T14:33:29.688Z",
  "networkType": "ethereum",
  "devdoc": {
    "kind": "dev",
    "methods": {},
    "version": 1
  },
  "userdoc": {
    "kind": "user",
    "methods": {},
    "version": 1
  }
}